:020000040800F2
:100000001805002001010008F3170008FD1400087E
:10001000F117000829020008F71A00080000000084
:100020000000000000000000000000001718000899
:100030002B0200080000000015180008191800081D
:100040001B0100081B0100081B0100081B01000820
:100050001B0100081B0100081B0100081B01000810
:100060001B0100081B0100081B0100081B01000800
:100070001B0100081B0100081B0100081B010008F0
:100080001B0100081B0100081B0100081B010008E0
:100090001B0100081B0100081B0100082D020008BD
:1000A0001B0100081B0100081B0100081B010008C0
:1000B0001B0100081B0100081B0100081B010008B0
:1000C0001B0100081B0100081B0100081B010008A0
:1000D0001B0100081B0100081B0100081B01000890
:1000E0001B0100081B0100081B010008DFF80CD0F1
:1000F00000F02AF800480047391B000818050020C6
:100100000648804706480047FEE7FEE7FEE7FEE7B1
:10011000FEE7FEE7FEE7FEE7FEE7FEE77D180008E4
:10012000ED000008D2B201E000F8012B491EFBD21D
:1001300070470022F6E710B513460A4604461946F2
:10014000FFF7F0FF204610BD064C074D06E0E068C3
:1001500040F0010394E8070098471034AC42F6D30E
:10016000FFF7C8FF781B0008981B000870B504460D
:1001700000688168C943C9071CD1816821F0010169
:10018000816000F039FB05460FE000BF00F034FB52
:10019000401B022809D9A06A40F01000A062E06A62
:1001A00040F00100E062012070BD20688068C0431B
:1001B000C007EBD0002070BDF8B5002604460096BD
:1001C00000688168C943C90728D0816841F00101EE
:1001D0008160134813490068B0FBF1F000E0401E55
:1001E00000900028FBD100F007FB054611E000BF9E
:1001F00000F002FB401B02280BD9A06A40F010005F
:10020000A062E06A40F00100E06284F8246001200E
:10021000F8BD20688068C043C007E9D10020F8BD60
:100220000C00002040420F00FEE7704710B5202070
:1002300000F0EEF9402000F0EBF9BDE8104080201E
:1002400000F0E6B970470000F8B5002504460095B7
:1002500090F82400012808D0012084F824002046CA
:10026000FFF784FF060002D04BE00220F8BDA06A31
:1002700020F4885040F00200A062022000F058FBF9
:1002800022490968B1FBF0F0400000E0401E0090F8
:100290000028FBD12046FFF78FFF2068816841F0DE
:1002A0000801816000F0A8FA074604E000F0A4FA13
:1002B000C01B0A2811D8206880680007F6D420687F
:1002C000816841F00401816000F096FA07460EE073
:1002D00000F092FAC01B0A2809D9A06A20F0020097
:1002E00040F01000A06284F824500120F8BD20687E
:1002F00080684007ECD4A06A20F0020040F00100C2
:10030000A06284F824503046F8BD00000C000020A4
:10031000F8B50024009490F824202546012A12D034
:10032000012280F824204A681F23072A0DD206687C
:10033000776B521E02EB820293409F430B689340FF
:100340001F43776319E00220F8BD06680D2A0AD220
:10035000376BD21F02EB820293409F430B6893409E
:100360001F43376309E0F76A0D3A02EB82029340BC
:100370009F430B6893401F43F7620A680723066890
:100380000A2A0AD3F7680A3A02EB420293409F43D3
:100390008B6893401F43F76008E0376902EB420225
:1003A00093409F438B6893401F4337610A68102A2C
:1003B00001D0112A20D1124B02689A4217D19368BA
:1003C0001B0219D4936843F4000393600968102951
:1003D00012D10C490C4A0968B1FBF2F101EB810121
:1003E000490000E0491E00910029FBD104E0816A28
:1003F00041F020018162012480F824502046F8BD9C
:10040000002401400C00002040420F002DE9F04183
:100410004FF0000704003D467ED0A06A002628B9B0
:10042000E66284F82460204600F07EF82046FFF75C
:100430009DFEA16A01F01001014304D0A06A40F0C2
:100440001000A06268E0A16A21F4885141F0020125
:10045000A1626268E169E3680A4347EA43010A432B
:10046000A1684FF48077B94208D0012906D0002155
:10047000D4F814C0BCF1010F02D00AE03946F7E706
:10048000F3B1A36A43F02003A362E36A43F00103DC
:10049000E3622368D3F804C02CF4694C4CEA010CE5
:1004A000C3F804C023689968DFF870C001EA0C0142
:1004B00011439960A168B9420BD0012909D00CE021
:1004C000DFF85CC0A3690CEB43330B4343F40061DA
:1004D000DFE7218A0D05A5F580152168CB6A23F495
:1004E00070032B43CB62216889680E4B19409142FF
:1004F00008D1E662A16A21F0020141F00101A16286
:10050000BDE8F081A06A20F0020040F01000A06277
:10051000E06A40F00100E0620120F1E7FDF7E1FF51
:1005200000E0FFFFFE0E1FFF00B585B00021009127
:1005300001910291039100680E49884218D10E483A
:10054000816941F400718161816901F40071049154
:10055000816941F0080181618069694600F0080005
:1005600004900220009003200190044800F05CF801
:1005700005B000BD0024014000100240000C014005
:1005800070B5044600F038F90546601C02D00448F6
:100590000078044400F030F9401BA042FAD370BD4B
:1005A0000000002070B580061DD51420FFF7E8FF7D
:1005B0002021144800F016F9002814D1124C2068AC
:1005C000406A124D10B92868406A68B100210E488F
:1005D00000F06AFF00210D4800F066FF216800204E
:1005E00048622968486270BD0021084800F044FF55
:1005F000052001F090FABDE870400021024800F0AB
:100600003BBF00000008014098000020D8000020F7
:10061000044910B50A68024202D00860FFF7C2FF21
:1006200010BD0000140401402DE9F84FDFF890A13F
:1006300000220AF1040B144601274FF00F090BF1B9
:10064000040E00BF0B6807FA04F52B40AB4274D1CF
:10065000DFF870C14E68A6EB0C0866452BD00DDCA8
:10066000032E34D005DC36B3012E19D0022E2FD143
:100670001BE0112E16D0122E2AD119E0B8F5881FD2
:1006800019D006DCB8F5803F15D0B8F5801F1FD112
:1006900011E0B8F5001F0ED0B8F5041F18D10AE01C
:1006A000CA6815E0CA68121D12E0CA6808320FE075
:1006B000CA680C320CE08A682AB1012A4FF008029D
:1006C00003D0456104E0042202E0056100E000225D
:1006D000FF2B01D8064601E000F104064FEA84052D
:1006E00001D9A5F12005D6F800C009FA05F82CEAD1
:1006F000080C02FA05F54CEA050CC6F800C04D6876
:10070000ED0057D5304DAE6946F00106AE61AD69DA
:1007100024F0030605F0010500952C4D06EB050CB1
:10072000DCF80850A6074FEA167809FA08F6B54330
:10073000274EB04202D1002610E03BE0254EB042E9
:1007400001D101260AE0244EB04201D1022605E083
:10075000224EB04201D1032600E0042606FA08F634
:100760002E43CCF808604D68DAF80060ED0355467A
:1007700001D51E4300E09E432E604D68DBF800600B
:10078000AD035D4601D51E4300E09E432E604D68DB
:10079000DEF80060ED02754601D51E4300E09E4381
:1007A0002E604D68AD020E4D2E6801D51E4300E04F
:1007B0009E432E60641C102CFFF444AFBDE8F88FFC
:1007C0000004014000001110001002400000014030
:1007D00000080140000C01400010014000140140DD
:1007E0000C0401408068084000D0012070470AB125
:1007F000016170470904FBE7014880687047000009
:10080000000000200248816802781144816070472E
:1008100000000020074810B5016841F01001016098
:10082000032000F073F8002000F006F800F024F830
:10083000002010BD0020024070B50D4D04464FF45D
:100840007A712878B1FBF0F00A490968B1FBF0F041
:1008500000F040FC48B9102C07D200222146501E5F
:1008600000F034F800206C6070BD012070BD000005
:10087000000000200C0000200C4808B5816941F000
:1008800001018161816901F001010091C16941F0BB
:100890008051C161C06900F08050009004484168F7
:1008A00021F0E06141F00071416008BD001002409C
:1008B0000000014000F01F0201219140400980002A
:1008C00000F1E020C0F8001170470000F0B40E4BBA
:1008D0001B680C46C3F30223C3F10705042D00D99E
:1008E0000425191D072901D2002300E0DB1E012683
:1008F00006FA05F1491E214099409E40761E164099
:100900003143F0BC00F076BF0CED00E0064900F08A
:10091000070208684FF6FF03184040EA0220034A26
:1009200010430860704700000CED00E00000FA057D
:1009300010B529A401461DCC86B08DE81D002AA063
:100940002A4C006804900020012923D002293AD0C3
:1009500010291DD161682268D20119D5C1F38342E3
:10096000C9031DF8020009D5616804AAC1F340411A
:10097000515C1F4AB2FBF1F1484301E01D49484375
:100980006168490204D440005FF00301B0FBF1F05C
:1009900006B010BD226AC2F30121012903D19207DA
:1009A00001D5C803F4E7022905D1626A920702D58E
:1009B00049F64040ECE70329EAD121688903E7D5ED
:1009C0004FF22440E4E700F043F96168C1F381315C
:1009D000491C4900DAE7000002030405060708097C
:1009E0000A0B0C0D0E0F1010010200000010024047
:1009F00000127A0000093D002DE9F8430546007811
:100A0000354CC00754D0E0690026C00008D4E06926
:100A100040F08050E061E069012600F080500090D5
:100A20002E480168C90512D40168804641F48071DE
:100A30000160FFF7E1FE074605E000BFFFF7DCFEBF
:100A4000C01B642823D8D8F80000C005F6D5206A5A
:100A500010F4407021D0A98801F4407181421CD06B
:100A6000206A1F49012220F440700A6000220A60B7
:100A70002062C00711D0FFF7BFFE074641F2883859
:100A800008E000BFFFF7B8FEC11B414502D90320B3
:100A9000BDE8F883206A8007F4D5206A696820F4ED
:100AA0004070084320621EB1E06920F08050E06190
:100AB0002878800705D56068A96820F4404008437D
:100AC00060602878C00605D56068E96820F4800079
:100AD000084360600020DBE7001002400070004027
:100AE000400442422DE9F047DFF8548105460E46A6
:100AF000D8F8000000F00700B0420CD2D8F800107F
:100B000021F007013143C8F80010D8F8000000F0C8
:100B10000700B0426FD128684A4C810712D54007C0
:100B200003D5606840F4E06060602878000703D572
:100B3000606840F4605060606068A96820F0F00070
:100B4000084360602878C00744D06868012816D040
:100B50002168022816D0890700294CDA616821F043
:100B6000030101436160FFF747FE6968074641F2F0
:100B7000883001290ED00229814618D026E021684C
:100B80008903E9E78901E7E7FFF736FEC11B49451D
:100B900001D918E081466068C0F381000128F3D1D3
:100BA00018E000BFFFF728FEC11B49450BD860685D
:100BB000C0F381000228F5D10CE000BFFFF71CFE56
:100BC000C11B494502D90320BDE8F087606810F0D9
:100BD0000C0FF3D1D8F80010404601F00701B142E4
:100BE0000BD9016821F0070131430160006800F072
:100BF0000700B04201D00120E6E72878400705D57C
:100C00006068E96820F4E0600843606028780007C5
:100C100006D56068296920F4605040EAC100606030
:100C200000F026F86168084AC1F30311515CC8401E
:100C3000064908600020FFF7FFFD0020C4E7000020
:100C40000020024000100240601B00080C00002041
:100C50000448054900684968044AC1F3C221515C4F
:100C6000C84070470C00002000100240701B0008B4
:100C700012A185B00FC98DE80F0014A0144A0068B6
:100C800004905168134801F00C03042B10D0082B7A
:100C90000ED1C1F38343C9031DF803000AD551687F
:100CA00004AAC1F34041515C0A4A5043B0FBF1F041
:100CB00005B0704708494843FAE7000002030405FD
:100CC000060708090A0B0C0D0E0F10100102000098
:100CD0000010024000127A0000093D002DE9F84F93
:100CE00004460078B94DC00748D06868C0F3810059
:100CF000012807D06868C0F38100022809D168681C
:100D0000C00306D52868800338D5606800286FD0F6
:100D100034E06068B0F5803F0BD010B1B0F5A02F83
:100D200011D0286820F480302860286820F48020C2
:100D300002E0286840F480302860606888B1FFF7DE
:100D40005BFD064609E0286840F480202860F0E753
:100D5000FFF752FD801B642875D828688003F7D5FB
:100D60000CE0FFF749FD064605E000BFFFF744FD34
:100D7000801B6428F0D828688003F7D42078944E2C
:100D800080074FF001094FF000083BD5686810F06C
:100D90000C0F07D06868C0F38100022809D1686889
:100DA000C00306D42868800714D5206901281FD104
:100DB00010E02069B0B1C6F80090FFF71DFD0746AE
:100DC00005E000BFFFF718FDC01B0228C4D8286843
:100DD0008007F7D52868616920F0F80040EAC10073
:100DE00028600FE0C6F80080FFF706FD074606E022
:100DF000E9E000BFFFF700FDC01B022823D82868E8
:100E00008007F7D4207800072CD57248A169D9B1A2
:100E1000C0F80090FFF7F0FC074604E0FFF7ECFC99
:100E2000C01B02280FD8686A8007F7D56A484FF4BC
:100E3000FA510068B0FBF1F0009000BF0098411E2D
:100E40000091FAD20EE080E0C0F80080FFF7D4FCF9
:100E5000074604E0FFF7D0FCC01B022875D8686A7B
:100E60008007F7D42078400760D5E8690027C000E4
:100E700008D4E86940F08050E861E869012700F093
:100E80008050009055480168C90513D40168834615
:100E900041F480710160FFF7AFFC824606E000BFBD
:100EA000FFF7AAFCA0EB0A0064284ED8DBF800008C
:100EB000C005F5D5E06801280AD008B1052813D08F
:100EC000286A20F001002862286A20F0040002E06D
:100ED000286A40F001002862E06841F2883B98B13E
:100EE000FFF78AFC82460BE0286A40F00400286283
:100EF000EEE700BFFFF780FCA0EB0A0159455AD886
:100F0000286A8007F6D50CE0FFF776FC824605E0FC
:100F1000FFF772FCA0EB0A0159454CD8286A8007FC
:100F2000F6D41FB1E86920F08050E861E06988B329
:100F30006968C1F38101022945D00228C6F86080A2
:100F400004D0FFF759FC044638E034E0FFF754FCC6
:100F5000074604E0FFF750FCC01B02282BD8286886
:100F60008001F7D4206AB0F5803F05D16868A16898
:100F700020F4003008436860D4E908010843696838
:100F800021F4741108436860C6F86090FFF734FCE0
:100F9000044606E015E000BFFFF72EFC001B022808
:100FA00009D828688001F7D50BE000BFFFF724FCC3
:100FB000001B022802D90320BDE8F88F28688001B1
:100FC000F4D40020F8E70120F6E70000001002400A
:100FD00000004242800442420C00002000700040A9
:100FE00070B5040005D00025A56294F8510010B139
:100FF00004E0012070BD204600F034F8022084F89F
:1010000051002068016821F040010160D4E901012C
:101010000843D4E903121143084361690843218B53
:1010200001F400710843E1690843216A0843A16A99
:10103000084321680860A069042101EA1040616A40
:101040000843216848602168E06A08612068C16936
:1010500021F40061C1616565012084F85100002020
:1010600070BD000000B585B0002100910191029192
:10107000039100681349884221D11348816941F4E2
:1010800080518161816901F480510491816941F04D
:10109000080181618069694600F0080004902820F9
:1010A000009002200190032003900848FFF7BCFA4B
:1010B0000748416841F0E06141F00101416005B03D
:1010C00000BD00000030014000100240000C014053
:1010D0000000014010B5401EB0F1807F01D3012017
:1010E00010BD4FF0E02460610F21601700F082FB1B
:1010F0000020A06107202061002010BD10B590F8ED
:101100003C20012A25D0012280F83C20CA688C6846
:1011100022F4407222434C6822F4806222430C681D
:1011200022F4006222430C6922F4805222434C696B
:1011300022F4005222438C6922F48042224322F49A
:101140000041026800232143516480F83C300020B4
:1011500010BD022010BD30B590F83C20012A20D0EF
:10116000012280F83C20022380F83D3003685C684F
:1011700024F070045C6003685C680D682C435C605C
:1011800003689C6824F080049C6003689C6849683C
:101190000C439C6080F83D20002180F83C100846FC
:1011A00030BD022030BD10B5040003D094F83D00DE
:1011B00010B107E0012010BD002084F83C0020465B
:1011C00000F00CF8022084F83D00211D206800F09A
:1011D00079FB012084F83D00002010BD08B50C4AC1
:1011E00001680C48914207D1816941F40061816135
:1011F000806900F4006009E0B1F1804F07D1C16956
:1012000041F00101C161C06900F00100009008BD1A
:10121000002C01400010024070B5044690F83C00DC
:10122000012817D0012584F83C50022084F83D00A5
:101230002068826822F0770222F47F428260086888
:10124000502837D00DDC202859D005DC88B3102871
:1012500041D151E0022070BD302853D040283AD10E
:101260003FE060282ED070280BD0B0F5805F03D00F
:10127000B0F5005F2FD110E02068816821F00701F0
:1012800015E0CB68D1E90121206800F05CFB216802
:10129000886840F0770088601DE0CB68D1E90121C3
:1012A000206800F050FB2068816841F48041816033
:1012B00011E01EE0CA684968206800F0F9FB50217F
:1012C000206806E0CA684968206800F002FC6021D6
:1012D000206800F042FB84F83D50002084F83C0078
:1012E00070BDCA684968206800F0E2FB40212068B0
:1012F000EFE700212068ECE710212068E9E72021D2
:101300002068E6E730212068E3E7000010B586B0EA
:1013100000210091019102910391124C036812493E
:1013200002221248A34209D18B6943F004038B6166
:10133000896901F00401049181150BE0B3F1804F3C
:101340000ED18B6943F004038B61896901F00401BC
:1013500004910121CDE9001269460392FFF764F977
:1013600006B010BD002C01400010024000080140F2
:1013700070B5044690F83C000D4601280DD00126BA
:1013800084F83C60022084F83D0042B1042A18D061
:10139000082A2AD00C2A4DD139E0022070BD2068DD
:1013A00000F0E4FA2068816941F008018161206859
:1013B000816921F004018161206881692A691143F2
:1013C00011E0206800F0FAFA2068816941F40061B8
:1013D00081612068816921F480618161206881696F
:1013E0002A6941EA0221816124E0206800F012FBB1
:1013F0002068C16941F00801C1612068C16921F01C
:101400000401C1612068C1692A69114311E02068A3
:1014100000F02CFB2068C16941F40061C1612068C3
:10142000C16921F48061C1612068C1692A6941EA0A
:101430000221C16184F83D60002084F83C0070BD49
:1014400010B5040003D094F83D0010B107E001206E
:1014500010BD002084F83C00204600F00CF802206B
:1014600084F83D00211D206800F02CFA012084F84A
:101470003D00002010BD704710B5044600680122F1
:1014800000F056FA07492068884203D1416C41F4C4
:10149000004141642068016841F0010101600020C1
:1014A00010BD0000002C014010B504460068002269
:1014B00000F03EFA104B41F2111120688A10984258
:1014C00009D1036A0B4206D1036A134203D1436C6C
:1014D00023F4004343642068036A0B4206D1016A87
:1014E000114203D1016821F001010160012084F85B
:1014F0003D00002010BD0000002C0140FEE7000070
:101500003EB5002411480094019402948460C460A4
:101510000D4944610160012505614FF4602144607B
:10152000C161FEF773FF08B1FEF78CFE0920CDE91B
:101530000005694602940548FEF7EAFE002801D03E
:10154000FEF780FE3EBD0000002401401000002098
:101550002DE9F04786B000243548009401940294A8
:101560000394816941F020018161816901F02001CA
:101570000491816941F004018161816901F00401F4
:101580000491816941F0080181618069DFF8A490CC
:1015900000F008000490012218214846FFF727F9BF
:1015A0004FF40048002241464846FFF720F9DFF893
:1015B00088A00022C0215046FFF719F91820012504
:1015C000CDE900050220CDE9024069464846FFF713
:1015D0002BF81A4E2020CDE90006694602954846B0
:1015E000FFF722F8C0270097CDE901646946484615
:1015F000FFF71AF80326CDF800800396CDE90154D1
:1016000069464846FFF710F800970396CDE9015464
:1016100069465046FFF708F8002211461720FFF7E9
:1016200055F91720FFF746F906B0BDE8F08700002E
:101630000010024000080140000C01400000211091
:10164000114810B50F4901604FF4827141604FF4A9
:101650000041816000210222C0E903121202C0E9A8
:1016600005123822C0E90721416281620A21C16264
:10167000FFF7B6FC002803D0BDE81040FEF7E2BD3E
:1016800010BD0000003001404000002010B594B0B3
:1016900000240E940F941094119412941C21684607
:1016A0001394FEF746FD1C2107A8FEF742FD2948CA
:1016B0002749C0E900144BF67F31C0E902410461BB
:1016C00044618461FFF76FFD08B1FEF7BBFD4FF485
:1016D00080500E900EA91F48FFF79EFD08B1FEF73F
:1016E000B1FD1C48FFF7ACFE08B1FEF7ABFD12944C
:1016F00012A918481394FFF72EFD08B1FEF7A2FDBA
:10170000602000904FF41660CDE901040420CDE97B
:1017100003400594002269460E480694FFF728FE10
:1017200008B1FEF78FFD0794089409944FF4005018
:101730000A94CDE90B4007A906480D94FFF7DEFC9B
:1017400008B1FEF77FFD0348FFF7E0FD14B010BDC0
:10175000002C01409800002010B58EB000240794A2
:10176000089409940A940B941C2168460C94FEF783
:10177000E0FC1E484FF08041C0E90014EF21C0E9B1
:10178000024104618461FFF70EFD08B1FEF75AFDC6
:101790004FF48050079007A91448FFF73DFD08B1AA
:1017A000FEF750FD1148FFF74BFE08B1FEF74AFD6A
:1017B0000B940BA90D480C94FFF7CDFC08B1FEF774
:1017C00041FD602000907820CDE9010404200490C0
:1017D000002269460548FFF7CBFD08B1FEF732FD50
:1017E0000248FFF793FD0EB010BD0000D8000020A6
:1017F000FEE770470907090E002806DA00F00F001F
:1018000000F1E02080F8141D704700F1E02080F81E
:101810000014704770477047FEF7F4BF30B593B0BF
:1018200028216846FEF785FC14210AA8FEF781FCF2
:10183000002401200F9410941194010412948DE857
:10184000130004904FF4E010CDE90810022507952D
:101850006846FFF743FA0F20CDE90A056802CDE993
:101860000C4002210AA80E94FFF73CF9A80311903E
:101870000F950FA8FFF7C0F813B030BD0D480168F1
:1018800041F00101016041680B4A1140416001686B
:101890000A4A11400160016821F480210160416819
:1018A00021F4FE0141604FF41F0181600449C0032F
:1018B00008607047001002400000FFF8FFFFF6FECE
:1018C00008ED00E0F0B50268164B174C174D4FF0CD
:1018D0008047984205D0B84203D0A04201D0A84228
:1018E00003D122F070064A683243984205D0B842CC
:1018F00003D0A04201D0A84203D122F44074CA68A8
:10190000224322F080044A69224302608A68C2624C
:101910000A688262984201D109690163012141612B
:10192000F0BD0000002C0140000400400008004011
:1019300010B50123046A8B409C430462036A8A4009
:101940001343036210BD10B5846842EA032224F4F5
:101950007F440A432243826010BD826822F07002F5
:101960000A4342F0070181607047000030B5026A07
:1019700022F001020262026A4368846924F073055E
:101980000C682C4322F002058A682A430A4DA842BB
:101990000BD122F00805CA6823F440732A434D692D
:1019A00022F004021D438B692B4343608461496824
:1019B0004163026230BD0000002C014030B5026A74
:1019C00022F010020262026A436884690D6824F4FE
:1019D000E64444EA05248D6822F0200242EA05121A
:1019E0000B4DA8420ED1CD6822F0800242EA0512CA
:1019F0004D6923F4406343EA85038D6922F0400278
:101A000043EA85034360846149688163026230BDB3
:101A1000002C014030B5026A22F480720262036A2F
:101A20004268C46923F4007324F073050C682C43E6
:101A30008D6843EA05230C4DA8420ED1CD6823F4EE
:101A4000006343EA05234D6922F4405242EA05123D
:101A50008D6923F4806342EA05124260C4614968DB
:101A6000C163036230BD0000002C014030B5026A42
:101A700022F480520262046A4268C3690D6823F44A
:101A8000E64343EA05238D6824F4005444EA053410
:101A9000064DA84204D14D6922F4804242EA8512E3
:101AA0004260C36149680164046230BD002C01409A
:101AB00010B5036A046A24F001040462846924F006
:101AC000F00444EA021423F00A020A438461026229
:101AD00010BD10B5036A23F0100303628369046A22
:101AE00023F4704343EA023224F0A00343EA0111D5
:101AF0008261016210BDFEE702E008C8121F08C142
:101B0000002AFAD170477047002001E001C1121F7E
:101B1000002AFBD1704700EBC0014FF0E02041618B
:101B200000218161012202610269D30701D0D20341
:101B3000FAD5016181617047FEF76CFEFFF76EFE1A
:101B4000FFF706FDFFF7A2FDFFF706FEFFF778FDA2
:101B5000FFF7D6FC0148FEF777FBFEE710000020F8
:101B6000000000000000000001020304060708094D
:101B70000000000001020304981B00080000002080
:101B800010000000F81A0008A81B00081000002030
:101B900008050000081B00080100000010000000FC
:081BA0000000000000A24A044D
:04000005080000ED02
:00000001FF
