:020000040800F2
:10000000680500200101000847210008251E00089E
:100010004521000841060008B32700080000000041
:10002000000000000000000000000000D1240008D3
:100030007B0600080000000019240008D3240008F3
:100040001B0100081B0100081B0100081B01000820
:100050001B0100081B0100081B0100081B01000810
:100060001B0100081B0100081B01000845060008D1
:100070001B0100081B0100081B0100081B010008F0
:100080001B0100081B0100081B0100081B010008E0
:100090001B0100081B0100081B0100087D06000869
:1000A0001B0100081B0100081B0100081B010008C0
:1000B0001B0100081B0100081B0100081B010008B0
:1000C0001B0100081B0100081B0100081B010008A0
:1000D0001B0100081B0100081B0100081B01000890
:1000E0001B0100081B0100081B010008DFF80CD0F1
:1000F00000F0ECF900480047F527000868050020EB
:100100000648804706480047FEE7FEE7FEE7FEE7B1
:10011000FEE7FEE7FEE7FEE7FEE7FEE7392500081B
:10012000ED000008202A04DB203A21FA02F0002129
:10013000704721FA02F3D040C2F1200291400843F7
:1001400019467047D2B201E000F8012B491EFBD2DC
:1001500070470022F6E710B513460A4604461946D2
:10016000FFF7F0FF204610BD2DE9FE4F81EA0304A2
:1001700004F0004421F0004100944FF0000B23F004
:10018000004350EA01045ED052EA03045BD0C3F39B
:100190000A54C1F30A552C44A4F2F3340194A0FB91
:1001A0000254C1F3130141F48011C3F3130343F468
:1001B000801301FB024400FB034E840A970A44EAC1
:1001C000815447EA8357A4FB076802958D0A05FB13
:1001D00007854FEA932C04FB0C542705029D4FEA38
:1001E000065847EA1637B5EB08056EEB070C870E85
:1001F000920E47EA811742EA8312A7FB0201B6EB8F
:100200000B0164EB00042B0D43EA0C335E1844EB46
:100210001C50DA465146E7FB0201C5F313044FEACE
:100220000B3343EA14534FEA0432019C43EA0603BA
:10023000A4F10C040294009CCDE900B400F0F8F89D
:1002400003B0BDE8F08F00200146F9E72DE9F04D3D
:1002500081EA030404F0004B21F0004514464FF0FE
:10026000000A23F0004150EA050220D054EA0102BE
:100270001DD0C5F30A570246C5F31303C1F313009B
:10028000C1F30A5640F4801543F48013A7EB060827
:10029000101BD64608F2FD3873EB050002D308F1B7
:1002A000010801E092185B41B8F1000F03DA002069
:1002B0000146BDE8F08D00204FF4801106468446CB
:1002C0000EE0171B73EB050705D3121B63EB050349
:1002D00006434CEA010C49084FEA300092185B4192
:1002E00050EA0107EDD152EA030012D082EA04007D
:1002F00083EA0501084305D0101BAB4106D2012259
:10030000002306E000224FF0004302E06FF00102FC
:1003100053101AEB06004CEB085110EB0A0041EBAE
:100320000B01BDE8F04D00F074B80EB540F233415A
:1003300002910021CDE900110A460B4600F078F841
:1003400003B000BD20F00040C10DC0F3160040F422
:1003500000007F2901DA00207047962903DCC1F1F3
:100360009601C840704796398840704701F00043B5
:1003700030B421F0004150EA010206D00A0DA2F586
:100380006072C1F31301002A02DC30BC0020704708
:10039000440F44EAC104C100E01830BC00EBC25075
:1003A000AFF300800029A8BF7047401C490008BF78
:1003B00020F00100704710B4B0FA80FC00FA0CF095
:1003C00050EA010404BF10BC704749B1CCF12004CD
:1003D00021FA04F411FA0CF118BF0121214308435A
:1003E000A3EB0C01CB1D4FEA00614FEA102042BF86
:1003F000002010BC704700EBC35010440029A4BF7C
:1004000010BC7047401C490008BF20F0010010BC20
:10041000704710B5141E73F1000408DA401C41F156
:10042000000192185B411A4301D120F0010010BD78
:100430002DE9F04D92469B4611B1B1FA81F202E0EE
:10044000B0FA80F22032904600F052F804460F468F
:1004500040EA0A0041EA0B0153465A46084313D0CA
:10046000114653EA010019D0C8F140025046FFF787
:1004700059FE05460E4650465946424600F038F8A9
:10048000084305D0012004E020463946BDE8F08D40
:100490000020054346EAE0762C4337430A9863057B
:1004A000E40AA0EB08000022FD0A44EA47540A309F
:1004B00002D500200146E9E7010510196941DDE98F
:1004C000084500196941BDE8F04DA2E7064C074D0B
:1004D00006E0E06840F0010394E807009847103414
:1004E000AC42F6D3FFF706FEE0300008003100080A
:1004F000202A04DB203A00FA02F1002070479140E4
:10050000C2F1200320FA03F3194390407047000022
:1005100070B5044600688168C943C9071CD1816869
:1005200021F00101816000F047FD05460FE000BFAA
:1005300000F042FD401B022809D9A06A40F01000DB
:10054000A062E06A40F00100E062012070BD206816
:100550008068C043C007EBD0002070BD10B50146D5
:10056000406A826A12F0500F05D0006A026BBDE843
:10057000104008461047816A41F4007181620168A9
:100580008968C1F3424107290CD1C16851B9816A18
:1005900021F480718162816AC90403D4816A41F0C7
:1005A0000101816200F05AF910BD10B5406A816AFC
:1005B00041F040018162C16A41F00401C16200F072
:1005C0004FF910BD10B5406A00F049F910BD0000A8
:1005D000F8B500260446009600688168C943C9073B
:1005E00028D0816841F001018160134813490068F7
:1005F000B0FBF1F000E0401E00900028FBD100F0BD
:10060000DBFC054611E000BF00F0D6FC401B0228D1
:100610000BD9A06A40F01000A062E06A40F001002F
:10062000E06284F824600120F8BD20688068C0433F
:10063000C007E9D10020F8BD1400002040420F009F
:10064000FEE70000014800F06BBA000048000020FF
:1006500030B590F840500124AC40C56B6C60046824
:1006600063604368102B036803D099600068C26020
:1006700030BD9A600068C16030BD704710B5202061
:1006800000F0A6FB402000F0A3FBBDE81040802056
:1006900000F09EBB70470000F8B5002504460095A9
:1006A00090F82400012808D0012084F82400204676
:1006B000FFF72EFF060002D04BE00220F8BDA06A33
:1006C00020F4885040F00200A062022000F010FDEB
:1006D00022490968B1FBF0F0400000E0401E0090A4
:1006E0000028FBD12046FFF773FF2068816841F0A6
:1006F0000801816000F060FC074604E000F05CFC4B
:10070000C01B0A2811D8206880680007F6D420682A
:10071000816841F00401816000F04EFC07460EE064
:1007200000F04AFCC01B0A2809D9A06A20F0020088
:1007300040F01000A06284F824500120F8BD206829
:1007400080684007ECD4A06A20F0020040F001006D
:10075000A06284F824503046F8BD00001400002048
:10076000F8B50024009490F824202546012A12D0E0
:10077000012280F824204A681F23072A0DD2066828
:10078000776B521E02EB820293409F430B689340AB
:100790001F43776319E00220F8BD06680D2A0AD2CC
:1007A000376BD21F02EB820293409F430B6893404A
:1007B0001F43376309E0F76A0D3A02EB8202934068
:1007C0009F430B6893401F43F7620A68072306683C
:1007D0000A2A0AD3F7680A3A02EB420293409F437F
:1007E0008B6893401F43F76008E0376902EB4202D1
:1007F00093409F438B6893401F4337610A68102AD8
:1008000001D0112A20D1124B02689A4217D1936865
:100810001B0219D4936843F40003936009681029FC
:1008200012D10C490C4A0968B1FBF2F101EB8101CC
:10083000490000E0491E00910029FBD104E0816AD3
:1008400041F020018162012480F824502046F8BD47
:10085000002401401400002040420F007047704700
:10086000704700002DE9F0414FF0000704003D46BD
:100870007ED0A06A002628B9E66284F8246020466B
:1008800000F07EF82046FFF743FEA16A01F0100158
:10089000014304D0A06A40F01000A06268E0A16AA1
:1008A00021F4885141F00201A1626268E169E368C4
:1008B0000A4347EA43010A43A1684FF48077B942EB
:1008C00008D0012906D00021D4F814C0BCF1010FD2
:1008D00002D00AE03946F7E7F3B1A36A43F02003F8
:1008E000A362E36A43F00103E3622368D3F804C020
:1008F0002CF4694C4CEA010CC3F804C023689968D5
:10090000DFF870C001EA0C0111439960A168B94297
:100910000BD0012909D00CE0DFF85CC0A3690CEB17
:1009200043330B4343F40061DFE7218A0D05A5F54E
:1009300080152168CB6A23F470032B43CB622168B6
:1009400089680E4B1940914208D1E662A16A21F0F4
:10095000020141F00101A162BDE8F081A06A20F02E
:10096000020040F01000A062E06A40F00100E06286
:100970000120F1E7FDF7E1FF00E0FFFFFE0E1FFFA2
:1009800070B586B00026054600960196029603963D
:1009900000681B49884230D11A49886940F40070C8
:1009A0008861886900F400700490886940F008004C
:1009B00088618869694600F0080004900220009070
:1009C00003200190104800F00FFA114C0F48C4E9C1
:1009D00000068020C4E90260400020618000606160
:1009E0002020A0614FF44050E061204600F042F921
:1009F00008B1FFF74FFE2C62656206B070BD0000C3
:100A00000024014000100240000C01400800024098
:100A1000480000202DE9F047894604463B4900681C
:100A20003B4F0E1D9046884201D0B84207D1306836
:100A300010F4702F03D001252846BDE8F08794F804
:100A4000240001280CD0012084F824002046FFF760
:100A5000BFFD05004FF0000004D084F82400EBE750
:100A60000220EAE7A16A40F60162914341F48071F5
:100A7000A1622168B94218D1326812F4702F14D0E3
:100A8000A16A41F48011A1623168490505D5A16AC6
:100A900021F4005141F48051A162A16AC9040AD530
:100AA000E16A21F00601E16206E0A26A22F4801206
:100AB000A2624968E9E7E06284F82400216A1548E7
:100AC0008862216A1448C862216A14480863216850
:100AD0006FF0020008602068816841F480718160D5
:100AE000216843464A464C31206A00F0F1F82068FC
:100AF0008168C1F342410729816803D041F4801124
:100B0000816099E741F4A001FAE700000024014068
:100B1000002801405D050008C5050008AB05000878
:100B20002DE9F05FC16B0C6801680B68D0F840C01C
:100B3000042202FA0CF2494DDFF824A1494E4A4F33
:100B4000DFF828B1DFF828E122422CD05A072AD555
:100B50000A68920603D40A6822F004020A60016857
:100B6000A94201D1042219E0514501D1402215E0EA
:100B7000B14202D14FF4806210E0B94202D14FF489
:100B800080420BE0594502D14FF4802206E07145C6
:100B900002D14FF4800201E04FF080622F49083902
:100BA0004A60C16A3BE04FF0020808FA0CF818EA04
:100BB000040F4FF000094FF0010235D05FEA83784F
:100BC00032D50B689B0605D40B6823F00A030B6033
:100BD00080F821200168A94201D1022219E0514583
:100BE00001D1202215E0B14202D14FF4007210E091
:100BF000B94202D14FF400520BE0594502D14FF4F3
:100C0000003206E0714502D14FF4001201E04FF0CE
:100C10000072124908394A6080F82090816A0029E0
:100C20001AD0BDE8F05F0847082505FA0CF5254203
:100C300012D01B0710D50B6823F00E030B6090F841
:100C40004010C36B02FA01F15960826380F82120E1
:100C500080F82090016BE2E7BDE8F09F08000240B9
:100C60001C00024030000240440002405800024094
:100C70006C00024030B528B308C813491422194447
:100C8000B1FBF2F18900C163104981630221417710
:100C90001A6843F6F0718A43D0E900142143D0E981
:100CA00002452C432143046921434469214384695B
:100CB00021431143196000214163012242770177EA
:100CC000084630BD012030BDF8FFFDBF00000240E6
:100CD00070B5044690F82000002501280CD00120B2
:100CE00084F8200094F821600020012E06D084F8BA
:100CF00020000225284670BD022070BD022684F81F
:100D00002160A0632068066826F001060660204680
:100D1000FFF79EFCE06A00282068016802D041F0DD
:100D20000E0106E021F0040101602068016841F035
:100D30000A0101602068016841F001010160D9E702
:100D400070B5044600F038F90546601C02D004482E
:100D50000078044400F030F9401BA042FAD370BD83
:100D60000800002070B580061DD51420FFF7E8FFAD
:100D70002021144800F016F9002814D1124C2068E4
:100D8000406A124D10B92868406A68B100210E48C7
:100D900001F01EF800210D4801F01AF8216800202A
:100DA00048622968486270BD0021084800F0F8FFD9
:100DB000052001F00EFDBDE870400021024800F062
:100DC000EFBF000000080140E400002024010020E3
:100DD000044910B50A68024202D00860FFF7C2FF5A
:100DE00010BD0000140401402DE9F84FDFF890A178
:100DF00000220AF1040B144601274FF00F090BF1F2
:100E0000040E00BF0B6807FA04F52B40AB4274D107
:100E1000DFF870C14E68A6EB0C0866452BD00DDCE0
:100E2000032E34D005DC36B3012E19D0022E2FD17B
:100E30001BE0112E16D0122E2AD119E0B8F5881F0A
:100E400019D006DCB8F5803F15D0B8F5801F1FD14A
:100E500011E0B8F5001F0ED0B8F5041F18D10AE054
:100E6000CA6815E0CA68121D12E0CA6808320FE0AD
:100E7000CA680C320CE08A682AB1012A4FF00802D5
:100E800003D0456104E0042202E0056100E0002295
:100E9000FF2B01D8064601E000F104064FEA840565
:100EA00001D9A5F12005D6F800C009FA05F82CEA09
:100EB000080C02FA05F54CEA050CC6F800C04D68AE
:100EC000ED0057D5304DAE6946F00106AE61AD6913
:100ED00024F0030605F0010500952C4D06EB050CEA
:100EE000DCF80850A6074FEA167809FA08F6B54369
:100EF000274EB04202D1002610E03BE0254EB04222
:100F000001D101260AE0244EB04201D1022605E0BB
:100F1000224EB04201D1032600E0042606FA08F66C
:100F20002E43CCF808604D68DAF80060ED035546B2
:100F300001D51E4300E09E432E604D68DBF8006043
:100F4000AD035D4601D51E4300E09E432E604D6813
:100F5000DEF80060ED02754601D51E4300E09E43B9
:100F60002E604D68AD020E4D2E6801D51E4300E087
:100F70009E432E60641C102CFFF444AFBDE8F88F34
:100F80000004014000001110001002400000014068
:100F900000080140000C0140001001400014014015
:100FA0000C0401408068084000D0012070470AB15D
:100FB000016170470904FBE7014880687047000041
:100FC000080000200248816802781144816070475F
:100FD00008000020074810B5016841F010010160C9
:100FE000032000F073F8002000F006F800F024F869
:100FF000002010BD0020024070B50D4D04464FF496
:101000007A712878B1FBF0F00A490968B1FBF0F079
:1010100000F0F4FC48B9102C07D200222146501EE3
:1010200000F034F800206C6070BD012070BD00003D
:1010300008000020140000200C4808B5816941F028
:1010400001018161816901F001010091C16941F0F3
:101050008051C161C06900F080500090044841682F
:1010600021F0E06141F00071416008BD00100240D4
:101070000000014000F01F02012191404009800062
:1010800000F1E020C0F8001170470000F0B40E4BF2
:101090001B680C46C3F30223C3F10705042D00D9D6
:1010A0000425191D072901D2002300E0DB1E0126BB
:1010B00006FA05F1491E214099409E40761E1640D1
:1010C0003143F0BC01F040B80CED00E0064900F0FF
:1010D000070208684FF6FF03184040EA0220034A5F
:1010E00010430860704700000CED00E00000FA05B6
:1010F00010B529A401461DCC86B08DE81D002AA09C
:101100002A4C006804900020012923D002293AD0FB
:1011100010291DD161682268D20119D5C1F383421B
:10112000C9031DF8020009D5616804AAC1F3404152
:10113000515C1F4AB2FBF1F1484301E01D494843AD
:101140006168490204D440005FF00301B0FBF1F094
:1011500006B010BD226AC2F30121012903D1920712
:1011600001D5C803F4E7022905D1626A920702D5C6
:1011700049F64040ECE70329EAD121688903E7D525
:101180004FF22440E4E700F043F96168C1F3813194
:10119000491C4900DAE700000203040506070809B4
:1011A0000A0B0C0D0E0F101001020000001002407F
:1011B00000127A0000093D002DE9F8430546007849
:1011C000354CC00754D0E0690026C00008D4E0695F
:1011D00040F08050E061E069012600F0805000900E
:1011E0002E480168C90512D40168804641F4807117
:1011F0000160FFF7E1FE074605E000BFFFF7DCFEF8
:10120000C01B642823D8D8F80000C005F6D5206A92
:1012100010F4407021D0A98801F4407181421CD0A3
:10122000206A1F49012220F440700A6000220A60EF
:101230002062C00711D0FFF7BFFE074641F2883891
:1012400008E000BFFFF7B8FEC11B414502D90320EB
:10125000BDE8F883206A8007F4D5206A696820F425
:101260004070084320621EB1E06920F08050E061C8
:101270002878800705D56068A96820F440400843B5
:1012800060602878C00605D56068E96820F48000B1
:10129000084360600020DBE700100240007000405F
:1012A000400442422DE9F047DFF8548105460E46DE
:1012B000D8F8000000F00700B0420CD2D8F80010B7
:1012C00021F007013143C8F80010D8F8000000F001
:1012D0000700B0426FD128684A4C810712D54007F9
:1012E00003D5606840F4E06060602878000703D5AB
:1012F000606840F4605060606068A96820F0F000A9
:10130000084360602878C00744D06868012816D078
:101310002168022816D0890700294CDA616821F07B
:10132000030101436160FFF747FE6968074641F228
:10133000883001290ED00229814618D026E0216884
:101340008903E9E78901E7E7FFF736FEC11B494555
:1013500001D918E081466068C0F381000128F3D10B
:1013600018E000BFFFF728FEC11B49450BD8606895
:10137000C0F381000228F5D10CE000BFFFF71CFE8E
:10138000C11B494502D90320BDE8F087606810F011
:101390000C0FF3D1D8F80010404601F00701B1421C
:1013A0000BD9016821F0070131430160006800F0AA
:1013B0000700B04201D00120E6E72878400705D5B4
:1013C0006068E96820F4E0600843606028780007FE
:1013D00006D56068296920F4605040EAC100606069
:1013E00000F026F86168084AC1F30311515CC84057
:1013F000064908600020FFF7FFFD0020C4E7000059
:101400000020024000100240C830000814000020F4
:101410000448054900684968044AC1F3C221515C87
:10142000C84070471400002000100240D830000867
:1014300012A185B00FC98DE80F0014A0144A0068EE
:1014400004905168134801F00C03042B10D0082BB2
:101450000ED1C1F38343C9031DF803000AD55168B7
:1014600004AAC1F34041515C0A4A5043B0FBF1F079
:1014700005B0704708494843FAE700000203040535
:10148000060708090A0B0C0D0E0F101001020000D0
:101490000010024000127A0000093D002DE9F84FCB
:1014A00004460078B94DC00748D06868C0F3810091
:1014B000012807D06868C0F38100022809D1686854
:1014C000C00306D52868800338D5606800286FD02F
:1014D00034E06068B0F5803F0BD010B1B0F5A02FBC
:1014E00011D0286820F480302860286820F48020FB
:1014F00002E0286840F480302860606888B1FFF717
:101500005BFD064609E0286840F480202860F0E78B
:10151000FFF752FD801B642875D828688003F7D533
:101520000CE0FFF749FD064605E000BFFFF744FD6C
:10153000801B6428F0D828688003F7D42078944E64
:1015400080074FF001094FF000083BD5686810F0A4
:101550000C0F07D06868C0F38100022809D16868C1
:10156000C00306D42868800714D5206901281FD13C
:1015700010E02069B0B1C6F80090FFF71DFD0746E6
:1015800005E000BFFFF718FDC01B0228C4D828687B
:101590008007F7D52868616920F0F80040EAC100AB
:1015A00028600FE0C6F80080FFF706FD074606E05A
:1015B000E9E000BFFFF700FDC01B022823D8286820
:1015C0008007F7D4207800072CD57248A169D9B1DB
:1015D000C0F80090FFF7F0FC074604E0FFF7ECFCD2
:1015E000C01B02280FD8686A8007F7D56A484FF4F5
:1015F000FA510068B0FBF1F0009000BF0098411E66
:101600000091FAD20EE080E0C0F80080FFF7D4FC31
:10161000074604E0FFF7D0FCC01B022875D8686AB3
:101620008007F7D42078400760D5E8690027C0001C
:1016300008D4E86940F08050E861E869012700F0CB
:101640008050009055480168C90513D4016883464D
:1016500041F480710160FFF7AFFC824606E000BFF5
:10166000FFF7AAFCA0EB0A0064284ED8DBF80000C4
:10167000C005F5D5E06801280AD008B1052813D0C7
:10168000286A20F001002862286A20F0040002E0A5
:10169000286A40F001002862E06841F2883B98B176
:1016A000FFF78AFC82460BE0286A40F004002862BB
:1016B000EEE700BFFFF780FCA0EB0A0159455AD8BE
:1016C000286A8007F6D50CE0FFF776FC824605E035
:1016D000FFF772FCA0EB0A0159454CD8286A800735
:1016E000F6D41FB1E86920F08050E861E06988B362
:1016F0006968C1F38101022945D00228C6F86080DB
:1017000004D0FFF759FC044638E034E0FFF754FCFE
:10171000074604E0FFF750FCC01B02282BD82868BE
:101720008001F7D4206AB0F5803F05D16868A168D0
:1017300020F4003008436860D4E908010843696870
:1017400021F4741108436860C6F86090FFF734FC18
:10175000044606E015E000BFFFF72EFC001B022840
:1017600009D828688001F7D50BE000BFFFF724FCFB
:10177000001B022802D90320BDE8F88F28688001E9
:10178000F4D40020F8E70120F6E700000010024042
:1017900000004242800442421400002000700040D9
:1017A00070B5040005D00025A56294F8510010B171
:1017B00004E0012070BD204600F034F8022084F8D7
:1017C00051002068016821F040010160D4E9010165
:1017D0000843D4E903121143084361690843218B8C
:1017E00001F400710843E1690843216A0843A16AD2
:1017F000084321680860A069042101EA1040616A79
:101800000843216848602168E06A08612068C1696E
:1018100021F40061C1616565012084F85100002058
:1018200070BD000000B585B00021009101910291CA
:10183000039100681349884221D11348816941F41A
:1018400080518161816901F480510491816941F085
:10185000080181618069694600F008000490282031
:10186000009002200190032003900848FFF7BCFA83
:101870000748416841F0E06141F00101416005B075
:1018800000BD00000030014000100240000C01408B
:10189000000001402DE9F84F044690F85000002662
:1018A000994617460D4601280DD04FF0010B84F8DC
:1018B00050B0FFF781FB804694F85100B2460128F2
:1018C00004D0022694E00220BDE8F88F002D7BD0E2
:1018D000002F79D0032084F85100C4F854A0256368
:1018E000A786E786C4F838A0A4F83CA0A4F83EA0D8
:1018F000C4F844A0C4F840A0A068B0F5004F04D1DB
:101900002068016841F4804101602068016849064F
:1019100003D4016841F040010160E068B0F5006F58
:10192000606804D030B3E08E012823D03EE010B1CF
:10193000E08E01281AD135F8021B206805E02068E6
:101940008168890706D535F8021BC160E08E401E0C
:10195000E0860BE0B9F1000F34D0B9F1FF3F05D0BC
:10196000FFF72AFBA0EB080149452BD2E08E0028A7
:10197000E5D11EE0216815F8010B087306E0206828
:101980008168890706D515F8011B0173E08E401E9A
:10199000E0860BE0B9F1000F14D0B9F1FF3F05D09C
:1019A000FFF70AFBA0EB080149450BD2E08E0028A7
:1019B000E5D14B46012202212046CDF8008000F0FF
:1019C0003CFD10B1032613E011E042464946204693
:1019D00000F023FD18B101262020606508E0A06812
:1019E00018B92068C16880680090606D00B1012658
:1019F00084F851B084F850A0304665E710B5401E19
:101A0000B0F1807F01D3012010BD4FF0E024606170
:101A10000F21601700F098FB0020A06107202061D3
:101A2000002010BD10B590F83C20012A25D00122DD
:101A300080F83C20CA688C6822F4407222434C68CB
:101A400022F4806222430C6822F4006222430C6973
:101A500022F4805222434C6922F4005222438C69C2
:101A600022F48042224322F40041026800232143F1
:101A7000516480F83C30002010BD022010BD30B50C
:101A800090F83C20012A20D0012280F83C2002233B
:101A900080F83D3003685C6824F070045C60036883
:101AA0005C680D682C435C6003689C6824F08004CB
:101AB0009C6003689C6849680C439C6080F83D20EA
:101AC000002180F83C10084630BD022030BD10B522
:101AD000040003D094F83D0010B107E0012010BDD0
:101AE000002084F83C00204600F00CF8022084F826
:101AF0003D00211D206800F043FD012084F83D00D9
:101B0000002010BD08B50C4A01680C48914207D16D
:101B1000816941F400618161806900F4006009E03D
:101B2000B1F1804F07D1C16941F00101C161C069C4
:101B300000F00100009008BD002C014000100240A0
:101B400070B5044690F83C00012817D0012584F8B0
:101B50003C50022084F83D002068826822F0770221
:101B600022F47F4282600868502837D00DDC20289C
:101B700059D005DC88B3102841D151E0022070BD56
:101B8000302853D040283AD13FE060282ED070282A
:101B90000BD0B0F5805F03D0B0F5005F2FD110E01F
:101BA0002068816821F0070115E0CB68D1E90121A7
:101BB000206800F026FD2168886840F07700886082
:101BC0001DE0CB68D1E90121206800F01AFD2068F2
:101BD000816841F48041816011E01EE0CA68496873
:101BE000206800F0C3FD5021206806E0CA684968FB
:101BF000206800F0CCFD6021206800F00CFD84F826
:101C00003D50002084F83C0070BDCA6849682068D7
:101C100000F0ACFD40212068EFE700212068ECE7F0
:101C200010212068E9E720212068E6E730212068BC
:101C3000E3E7000010B586B0002100910191029108
:101C40000391124C0368124902221248A34209D19F
:101C50008B6943F004038B61896901F004010491ED
:101C600081150BE0B3F1804F0ED18B6943F0040373
:101C70008B61896901F0040104910121CDE9001211
:101C800069460392FFF7B0F806B010BD002C014082
:101C9000001002400008014070B5044690F83C0076
:101CA0000D4601280DD0012684F83C60022084F8FE
:101CB0003D0042B1042A18D0082A2AD00C2A4DD15E
:101CC00039E0022070BD206800F0AEFC2068816918
:101CD00041F0080181612068816921F0040181617E
:101CE000206881692A69114311E0206800F0C4FC72
:101CF0002068816941F4006181612068816921F473
:101D000080618161206881692A6941EA02218161DB
:101D100024E0206800F0DCFC2068C16941F0080183
:101D2000C1612068C16921F00401C1612068C169F5
:101D30002A69114311E0206800F0F6FC2068C169AF
:101D400041F40061C1612068C16921F48061C16111
:101D50002068C1692A6941EA0221C16184F83D60B5
:101D6000002084F83C0070BD10B5040003D094F846
:101D70003D0010B107E0012010BD002084F83C00B8
:101D8000204600F00CF8022084F83D00211D206858
:101D900000F0F6FB012084F83D00002010BD7047E4
:101DA00010B504460068012200F020FC07492068B5
:101DB000884203D1416C41F40041416420680168CC
:101DC00041F001010160002010BD0000002C014025
:101DD00010B504460068002200F008FC104B41F2E8
:101DE000111120688A10984209D1036A0B4206D16A
:101DF000036A134203D1436C23F400434364206815
:101E0000036A0B4206D1016A114203D1016821F035
:101E100001010160012084F83D00002010BD000098
:101E2000002C0140FEE700003EB500211148009162
:101E30000191029181600E4AC160026041610124FA
:101E40004FF460220461C2614160FEF70BFD08B1EE
:101E5000FEF720FC0920CDE9000406200290694627
:101E60000448FEF77DFC002801D0FEF713FC3EBDC0
:101E70000024014018000020094808B5416941F0DC
:101E8000010141614069002200F00100009011460B
:101E90000B20FFF7FBF8BDE808400B20FFF7EAB87E
:101EA000001002402DE9F04786B000243548009428
:101EB000019402940394816941F020018161816958
:101EC00001F020010491816941F00401816181697F
:101ED00001F004010491816941F008018161806988
:101EE000DFF8A49000F00800049001221821484671
:101EF000FFF75DF84FF40048002241464846FFF7DF
:101F000056F8DFF888A00022C0215046FFF74FF8AE
:101F100018200125CDE900050220CDE902406946DF
:101F20004846FEF761FF1A4E2020CDE900066946BB
:101F300002954846FEF758FFC0270097CDE9016497
:101F400069464846FEF750FF0326CDF80080039609
:101F5000CDE9015469464846FEF746FF00970396CF
:101F6000CDE9015469465046FEF73EFF0022114676
:101F70001720FFF78BF81720FFF77CF806B0BDE8B5
:101F8000F08700000010024000080140000C0140F2
:101F900000002110114810B50F4901604FF4827103
:101FA00041604FF40041816000210222C0E9031228
:101FB0001202C0E905123822C0E90721416281629C
:101FC0000A21C162FFF7ECFB002803D0BDE81040F6
:101FD000FEF760BB10BD0000003001408C00002007
:101FE00010B594B000240E940F9410941194129490
:101FF0001C2168461394FEF7ACF81C2107A8FEF7D5
:10200000A8F829482749C0E900144BF67F31C0E9F8
:102010000241046144618461FFF759FD08B1FEF794
:1020200039FB4FF480500E900EA91F48FFF788FD32
:1020300008B1FEF72FFB1C48FFF796FE08B1FEF72C
:1020400029FB129412A918481394FFF718FD08B140
:10205000FEF720FB602000904FF41660CDE90104EC
:102060000420CDE903400594002269460E480694F9
:10207000FFF712FE08B1FEF70DFB079408940994D0
:102080004FF400500A94CDE90B4007A906480D947F
:10209000FFF7C8FC08B1FEF7FDFA0348FFF7CAFDD9
:1020A00014B010BD002C0140E400002010B58EB02B
:1020B00000240794089409940A940B941C21684600
:1020C0000C94FEF746F81E484FF08041C0E900141A
:1020D000EF21C0E9024104618461FFF7F8FC08B117
:1020E000FEF7D8FA4FF48050079007A91448FFF77D
:1020F00027FD08B1FEF7CEFA1148FFF735FE08B10B
:10210000FEF7C8FA0B940BA90D480C94FFF7B7FC27
:1021100008B1FEF7BFFA602000907820CDE90104F5
:1021200004200490002269460548FFF7B5FD08B178
:10213000FEF7B0FA0248FFF77DFD0EB010BD0000BB
:1021400024010020FEE770470907090E002806DA7F
:1021500000F00F0000F1E02080F8141D704700F13E
:10216000E02080F80014704770B5002404F1B0003E
:10217000C0B2002100F026F90021084600F022F943
:102180000021102000F01EF900250121002000F0A0
:1021900019F96D1CEDB2802DF7D3641CE4B2082C44
:1021A000E4D370BD10B5494C012240212046FEF712
:1021B000FEFE6420FEF7C4FD002240212046FEF70B
:1021C000F6FE6420FEF7BCFD012240212046FEF70A
:1021D000EEFE0021AE2000F0F5F80021084600F0E8
:1021E000F1F80021102000F0EDF80021402000F06F
:1021F000E9F80021812000F0E5F80021CF2000F06F
:10220000E1F80021A12000F0DDF80021C82000F055
:10221000D9F80021A62000F0D5F80021A82000F070
:10222000D1F800213F2000F0CDF80021D32000F0AC
:10223000C9F80021084600F0C5F80021D52000F0BB
:10224000C1F80021802000F0BDF80021D92000F065
:10225000B9F80021F12000F0B5F80021DA2000F0F3
:10226000B1F80021122000F0ADF80021DB2000F0D1
:10227000A9F80021402000F0A5F80021202000F05E
:10228000A1F80021022000F09DF800218D2000F02F
:1022900099F80021142000F095F80021A42000F006
:1022A00091F80021A62000F08DF80021AF2000F069
:1022B00089F80021AF2000F085F8FFF755FF0021D5
:1022C000BDE81040084600F003B80000000C0140D3
:1022D00010B50446B031C8B2002100F073F81020E8
:1022E00040EA1410002100F06DF804F00F00BDE882
:1022F000104040F00100002100F064B82DE9F041E9
:10230000203A00240D468046D7B27F2803D900200A
:102310008D1C8046EDB22946FFF7DAFF0F4E00BF55
:1023200004EB07100121305C00F04CF8641CE4B2AF
:10233000082CF5D36D1CE9B24046FFF7C9FF002415
:1023400004EB071030440121007A00F03BF8641CD4
:10235000E4B2082CF4D3BDE8F0810000982800080E
:102360002DE9F0478046002608981D4691468A468A
:102370003446470821E0281B401EC1B20A2000F065
:1023800083FAB9FBF0F00A21B0FBF1F201FB120075
:1023900026B9691E8C4201DA30B101263030C2B252
:1023A00007FB0480C0B203E007FB0480C0B2202218
:1023B0005146FFF7A3FF641CE4B2AC42DBD3BDE897
:1023C000F087000073B5114C09B1012200E0002232
:1023D00080212046FEF7EBFD0D4E4FF40045002214
:1023E00029463046FEF7E3FD0A23012269460948E3
:1023F000FFF750FA012229463046FEF7D8FD0122A8
:1024000080212046FEF7D3FD7CBD0000000C01407A
:10241000000801408C000020704738B50B46009240
:1024200004460022802100F008F8002804D0606DE6
:1024300040F020006065032038BD2DE9F0411D46C5
:1024400017460E460446DDF8188035E0681C33D088
:102450002DB1FEF7B1FDA0EB0800A8422CD32068F7
:10246000416821F0E00141606068B0F5827F0BD1E6
:10247000A068B0F5004F02D0B0F5806F04D120689D
:10248000016821F040010160A06AB0F5005F0AD147
:10249000206801684DF6FF721140016020680168F4
:1024A00041F400510160012084F85100002084F8BB
:1024B00050000320BDE8F0812068806836EA000003
:1024C00004D00020B842C1D10020F3E70120F9E791
:1024D0007047FEF777BD30B593B028216846FDF709
:1024E00038FE14210AA8FDF734FE002401200F94C1
:1024F00010941194010412948DE8130004904FF489
:10250000E010CDE90810022507956846FEF7C6FFE2
:102510000F20CDE90A056802CDE90C4002210AA886
:102520000E94FEF7BFFEA80311900F950FA8FEF7BB
:1025300043FE13B030BD00000D48016841F00101B9
:10254000016041680B4A1140416001680A4A11402C
:102550000160016821F480210160416821F4FE01DD
:1025600041604FF41F0181600449C0030860704757
:10257000001002400000FFF8FFFFF6FE08ED00E04B
:10258000F0B50268164B174C174D4FF08047984234
:1025900005D0B84203D0A04201D0A84203D122F016
:1025A00070064A683243984205D0B84203D0A04230
:1025B00001D0A84203D122F44074CA68224322F019
:1025C00080044A69224302608A68C2620A688262A1
:1025D000984201D10969016301214161F0BD000008
:1025E000002C0140000400400008004010B5012309
:1025F000046A8B409C430462036A8A40134303626B
:1026000010BD10B5846842EA032224F47F440A43D3
:102610002243826010BD826822F070020A4342F0B9
:10262000070181607047000030B5026A22F00102A4
:102630000262026A4368846924F073050C682C43C3
:1026400022F002058A682A430A4DA8420BD122F0E3
:102650000805CA6823F440732A434D6922F0040236
:102660001D438B692B434360846149684163026267
:1026700030BD0000002C014030B5026A22F010028B
:102680000262026A436884690D6824F4E64444EAFD
:1026900005248D6822F0200242EA05120B4DA84263
:1026A0000ED1CD6822F0800242EA05124D6923F472
:1026B000406343EA85038D6922F0400243EA8503C3
:1026C0004360846149688163026230BD002C01402F
:1026D00030B5026A22F480720262036A4268C469F9
:1026E00023F4007324F073050C682C438D6843EACF
:1026F00005230C4DA8420ED1CD6823F4006343EAB4
:1027000005234D6922F4405242EA05128D6923F4F3
:10271000806342EA05124260C4614968C163036292
:1027200030BD0000002C014030B5026A22F4805216
:102730000262046A4268C3690D6823F4E64343EA0F
:1027400005238D6824F4005444EA0534064DA8425C
:1027500004D14D6922F4804242EA85124260C3618D
:1027600049680164046230BD002C014010B5036A61
:10277000046A24F001040462846924F0F00444EA49
:10278000021423F00A020A438461026210BD10B5EC
:10279000036A23F0100303628369046A23F470431D
:1027A00043EA023224F0A00343EA0111826101628C
:1027B00010BDFEE702E008C8121F08C1002AFAD1C6
:1027C00070477047002001E001C1121F002AFBD1B1
:1027D000704700EBC0014FF0E020416100218161B2
:1027E000012202610269D30701D0D203FAD5016147
:1027F0008161704708B5FEF7EDFBFFF76CFEFFF750
:1028000051FBFFF739FBFFF7EBFBFFF74FFCFFF73F
:10281000C1FBFFF709FBFFF7C5FC1748FDF73CFFBD
:10282000012216491448FEF7F5F80520FEF788FA4C
:10283000124C134EDFF84C804FF0663710254FF4E2
:10284000FA792068FDF771FD00223346FDF7FEFCA2
:102850003A464346FDF788FCFDF788FD6060FDF7CA
:1028600071FD02460021042308460095FFF778FD1C
:102870004846FEF765FAE4E7180000200000002053
:1028800000FEAF4066660A400246012000E0504369
:10289000491EC9B2FBD270470000000000000000D2
:1028A0000000000000000000000000F80000000030
:1028B000000000333000000000100C06100C060071
:1028C000000000000000000040C07840C0784000D8
:1028D000043F04043F040400007088FC083000003A
:1028E000001820FF211E0000F008F000E018000092
:1028F00000211C031E211E0000F00888700000004B
:102900001E2123241927211010160E00000000009C
:102910000000000000000000000000E018040200B9
:10292000000000071820400000020418E00000002A
:102930000040201807000000404080F08040400028
:102940000202010F01020200000000F0000000007E
:102950000101011F01010100000000000000000052
:1029600080B07000000000000000000000000000C7
:102970000001010101010101000000000000000050
:1029800000303000000000000000000080601804EB
:10299000006018060100000000E010080810E000C8
:1029A000000F102020100F00001010F80000000091
:1029B0000020203F202000000070080808887000D8
:1029C0000030282422213000003008888848300058
:1029D0000018202020110E000000C02010F8000078
:1029E00000070424243F240000F808888808080011
:1029F0000019212020110E0000E010888818000026
:102A0000000F112020110E0000380808C8380800F7
:102A10000000003F00000000007088080888700077
:102A2000001C222121221C0000E010080810E000F8
:102A30000000312222110F00000000C0C000000081
:102A400000000030300000000000008000000000A6
:102A5000000080600000000000008040201008009E
:102A60000001020408102000404040404040400067
:102A70000404040404040400000810204080000042
:102A80000020100804020100007048080808F00047
:102A90000000003036010000C030C828E810E00017
:102AA0000718272423140B000000C038E0000000A2
:102AB000203C23020227382008F88888887000000C
:102AC000203F202020110E00C030080808083800E0
:102AD000071820202010080008F808080810E00057
:102AE000203F202020100F0008F88888E8081000F8
:102AF000203F20202320180008F88888E8081000CC
:102B0000203F200003000000C03008080838000003
:102B100007182020221E020008F808000008F80804
:102B2000203F210101213F20000808F8080800008B
:102B30000020203F2020000000000808F8080800BE
:102B4000C08080807F00000008F888C02818080036
:102B5000203F20012638200008F80800000000006F
:102B6000203F20202020300008F8F800F8F8080066
:102B7000203F003F003F200008F830C00008F80860
:102B8000203F200007183F00E01008080810E00070
:102B90000F10202020100F0008F808080808F00087
:102BA000203F210101010000E01008080810E000AA
:102BB0000F18242438504F0008F88888888870003F
:102BC000203F2000030C30200070880808083800DF
:102BD0000038202121221C00180808F808081800D5
:102BE0000000203F2000000008F808000008F80856
:102BF000001F202020201F000878880000C8380807
:102C0000000007380E010000F80800F80008F8007E
:102C1000033C0700073C0300081868808068180818
:102C200020302C03032C30200838C800C838080096
:102C30000000203F2000000010080808C8380800E5
:102C40002038262120201800000000FE0202020089
:102C50000000007F40404000000C30C00000000039
:102C6000000000010638C00000020202FE00000061
:102C7000004040407F000000000004020202040007
:102C80000000000000000000000000000000000044
:102C9000808080808080808000020204000000002C
:102CA0000000000000000000000080808080000024
:102CB0000019242222223F2008F800808000000012
:102CC000003F112020110E000000008080800000D5
:102CD000000E112020201100000000808088F800E4
:102CE000000E112020103F20000080808080000016
:102CF000001F222222221300008080F0888888187A
:102D00000020203F20200000000080808080800084
:102D1000006B94949493600008F800808080000019
:102D2000203F210000203F200080989800000000F4
:102D30000020203F20200000000000809898000024
:102D400000C08080807F000008F800008080800044
:102D5000203F24022D302000000808F80000000069
:102D60000020203F20200000808080808080800024
:102D7000203F20003F20003F8080008080800000B6
:102D8000203F210000203F20000080808080000044
:102D9000001F202020201F00808000808000000075
:102DA00080FFA12020110E000000008080808000A4
:102DB000000E112020A0FF80808080008080800095
:102DC00020203F21200001000000808080808000C2
:102DD0000033242424241900008080E08080000037
:102DE0000000001F20200000808000000080800084
:102DF000001F202020103F208080800000808080E5
:102E000000010E3008060100808000800080808074
:102E10000F300C030C300F00008080008080800099
:102E20000020312E0E3120008080800000808080C4
:102E300080818E7018060100008080808080800074
:102E40000021302C2221300000000000807C020292
:102E500000000000003F404000000000FF000000B4
:102E600000000000FF0000000002027C8000000063
:102E70000040403F0000000000060101020204047F
:102E800000000000000000000000F010101010FF13
:102E900010101010F0000000000000000000000002
:102EA000000000000000000000000F04040404FF04
:102EB000040404040F0000000000000000000000F3
:102EC00000000000000000004040405F555555756F
:102ED0005555555F404040000000000000000000D4
:102EE00000000000000000000040200F094989791F
:102EF0000909090F20400000000000000000000048
:102F0000000000000000000000FE02424ACA4A4AD7
:102F1000CA4A4A4202FE0000000000000000000011
:102F2000000000000000000000FF40504C43404003
:102F30004F50505C40FF0000000000000000000007
:102F400000000000000000000000F888888888FF6A
:102F500088888888F8000000000000000000000059
:102F6000000000000000000000001F080808087FA3
:102F7000888888889F80F000000000000000000022
:102F8000000000000000000080828282828282E2D3
:102F9000A2928A868280800000000000000000006B
:102FA0000000000000000000000000000040807FE2
:102FB0000000000000000000000000000000000011
:102FC00000000000000000002424A4FEA322002230
:102FD000CC0000FF00000000000000000000000026
:102FE0000000000000000000080601FF00010404CA
:102FF000040404FF020202000000000000000000C0
:103000000000000000000000101010FF1090088861
:103010008888FF8888880800000000000000000001
:1030200000000000000000000444827F0180804016
:10303000432C1028468180000000000000000000A2
:1030400000000000000000000000F888888888FF69
:1030500088888888F8000000000000000000000058
:10306000000000000000000000001F080808087FA2
:10307000888888889F80F000000000000000000021
:1030800000000000000000000000FE028282828238
:10309000FA828282828202000000000000000000AA
:1030A000000000000000000080601F4040404040E1
:1030B0007F404044584040000000000000000000F5
:1030C0000000000000000000000000000000000000
:1030D00001020304060708090000000001020304BE
:1030E000003100080000002018000000B42700088C
:1030F000183100081800002050050000C4270008FF
:1031000000000000000000000100000010000000AE
:083110000000000000A24A04C7
:04000005080000ED02
:00000001FF
